{
  "contractName": "Discount",
  "abi": [
    {
      "constant": true,
      "inputs": [
        {
          "name": "",
          "type": "uint256"
        }
      ],
      "name": "bidQueue",
      "outputs": [
        {
          "name": "amount",
          "type": "uint256"
        },
        {
          "name": "time",
          "type": "uint256"
        },
        {
          "name": "owner",
          "type": "address"
        }
      ],
      "payable": false,
      "stateMutability": "view",
      "type": "function",
      "signature": "0x23415083"
    },
    {
      "constant": true,
      "inputs": [
        {
          "name": "",
          "type": "address"
        }
      ],
      "name": "bidExists",
      "outputs": [
        {
          "name": "",
          "type": "bool"
        }
      ],
      "payable": false,
      "stateMutability": "view",
      "type": "function",
      "signature": "0xaca4a0db"
    },
    {
      "constant": true,
      "inputs": [],
      "name": "deposit",
      "outputs": [
        {
          "name": "",
          "type": "uint256"
        }
      ],
      "payable": false,
      "stateMutability": "view",
      "type": "function",
      "signature": "0xd0e30db0"
    },
    {
      "constant": true,
      "inputs": [],
      "name": "winner",
      "outputs": [
        {
          "name": "",
          "type": "address"
        }
      ],
      "payable": false,
      "stateMutability": "view",
      "type": "function",
      "signature": "0xdfbf53ae"
    },
    {
      "constant": true,
      "inputs": [
        {
          "name": "",
          "type": "address"
        }
      ],
      "name": "hashedBids",
      "outputs": [
        {
          "name": "hash",
          "type": "bytes32"
        },
        {
          "name": "time",
          "type": "uint256"
        }
      ],
      "payable": false,
      "stateMutability": "view",
      "type": "function",
      "signature": "0xf4c45373"
    },
    {
      "inputs": [],
      "payable": false,
      "stateMutability": "nonpayable",
      "type": "constructor",
      "signature": "constructor"
    },
    {
      "anonymous": false,
      "inputs": [
        {
          "indexed": false,
          "name": "winner",
          "type": "address"
        },
        {
          "indexed": false,
          "name": "bid",
          "type": "uint256"
        }
      ],
      "name": "tenderEndsWithWinner",
      "type": "event",
      "signature": "0xd69c971831c5571301c3ea9e7226489c0ce4c2f498bb8f90f7e17772e273a062"
    },
    {
      "anonymous": false,
      "inputs": [],
      "name": "tenderEndsWithoutWinner",
      "type": "event",
      "signature": "0x33e08f6e3768eedb2e4bacee86a18a76b6f19c3b73f0d070f3e1ee5c9456b8c3"
    },
    {
      "constant": true,
      "inputs": [
        {
          "name": "nonce",
          "type": "uint256"
        },
        {
          "name": "bidAmt",
          "type": "uint256"
        }
      ],
      "name": "generateHash",
      "outputs": [
        {
          "name": "",
          "type": "bytes32"
        }
      ],
      "payable": false,
      "stateMutability": "pure",
      "type": "function",
      "signature": "0x324a7d34"
    },
    {
      "constant": false,
      "inputs": [
        {
          "name": "desc",
          "type": "string"
        },
        {
          "name": "biddingDuration",
          "type": "uint256"
        },
        {
          "name": "revelationDuration",
          "type": "uint256"
        },
        {
          "name": "depositAmount",
          "type": "uint256"
        }
      ],
      "name": "makeTender",
      "outputs": [],
      "payable": false,
      "stateMutability": "nonpayable",
      "type": "function",
      "signature": "0xd572c1f1"
    },
    {
      "constant": true,
      "inputs": [
        {
          "name": "bidder",
          "type": "address"
        }
      ],
      "name": "hasBidBefore",
      "outputs": [
        {
          "name": "",
          "type": "bool"
        }
      ],
      "payable": false,
      "stateMutability": "view",
      "type": "function",
      "signature": "0x61c99ece"
    },
    {
      "constant": true,
      "inputs": [],
      "name": "hasBeenChecked",
      "outputs": [
        {
          "name": "",
          "type": "bool"
        }
      ],
      "payable": false,
      "stateMutability": "view",
      "type": "function",
      "signature": "0xec9e277c"
    },
    {
      "constant": true,
      "inputs": [
        {
          "name": "user",
          "type": "address"
        }
      ],
      "name": "isOwner",
      "outputs": [
        {
          "name": "",
          "type": "bool"
        }
      ],
      "payable": false,
      "stateMutability": "view",
      "type": "function",
      "signature": "0x2f54bf6e"
    },
    {
      "constant": true,
      "inputs": [],
      "name": "hasWinner",
      "outputs": [
        {
          "name": "",
          "type": "bool"
        }
      ],
      "payable": false,
      "stateMutability": "view",
      "type": "function",
      "signature": "0x9755a710"
    },
    {
      "constant": false,
      "inputs": [
        {
          "name": "hashedBid",
          "type": "bytes32"
        }
      ],
      "name": "makeBid",
      "outputs": [],
      "payable": true,
      "stateMutability": "payable",
      "type": "function",
      "signature": "0x553545d2"
    },
    {
      "constant": false,
      "inputs": [
        {
          "name": "nonce",
          "type": "uint256"
        },
        {
          "name": "bidAmt",
          "type": "uint256"
        }
      ],
      "name": "revealBid",
      "outputs": [],
      "payable": false,
      "stateMutability": "nonpayable",
      "type": "function",
      "signature": "0x7a935370"
    },
    {
      "constant": false,
      "inputs": [],
      "name": "endRevelation",
      "outputs": [],
      "payable": false,
      "stateMutability": "nonpayable",
      "type": "function",
      "signature": "0x6a0054d1"
    },
    {
      "constant": false,
      "inputs": [],
      "name": "close",
      "outputs": [],
      "payable": false,
      "stateMutability": "nonpayable",
      "type": "function",
      "signature": "0x43d726d6"
    },
    {
      "constant": false,
      "inputs": [
        {
          "name": "desc",
          "type": "string"
        },
        {
          "name": "biddingDuration",
          "type": "uint256"
        },
        {
          "name": "revelationDuration",
          "type": "uint256"
        },
        {
          "name": "depositAmount",
          "type": "uint256"
        }
      ],
      "name": "reopenTender",
      "outputs": [],
      "payable": false,
      "stateMutability": "nonpayable",
      "type": "function",
      "signature": "0x1f7c30fd"
    },
    {
      "constant": true,
      "inputs": [],
      "name": "getPhase",
      "outputs": [
        {
          "name": "",
          "type": "string"
        }
      ],
      "payable": false,
      "stateMutability": "view",
      "type": "function",
      "signature": "0xeced0280"
    },
    {
      "constant": true,
      "inputs": [],
      "name": "getProjectDetails",
      "outputs": [
        {
          "name": "",
          "type": "string"
        },
        {
          "name": "",
          "type": "uint256"
        },
        {
          "name": "",
          "type": "uint256"
        },
        {
          "name": "",
          "type": "uint256"
        }
      ],
      "payable": false,
      "stateMutability": "view",
      "type": "function",
      "signature": "0xff3a9c7e"
    },
    {
      "constant": true,
      "inputs": [],
      "name": "getResults",
      "outputs": [
        {
          "name": "",
          "type": "address"
        }
      ],
      "payable": false,
      "stateMutability": "view",
      "type": "function",
      "signature": "0x4717f97c"
    }
  ],
  "bytecode": "0x608060405234801561001057600080fd5b50611768806100206000396000f3fe608060405260043610610107576000357c0100000000000000000000000000000000000000000000000000000000900463ffffffff1680631f7c30fd1461010c57806323415083146101f25780632f54bf6e1461027b578063324a7d34146102e457806343d726d61461033d5780634717f97c14610354578063553545d2146103ab57806361c99ece146103d95780636a0054d1146104425780637a935370146104595780639755a7101461049e578063aca4a0db146104cd578063d0e30db014610536578063d572c1f114610561578063dfbf53ae14610647578063ec9e277c1461069e578063eced0280146106cd578063f4c453731461075d578063ff3a9c7e146107c9575b600080fd5b34801561011857600080fd5b506101f06004803603608081101561012f57600080fd5b810190808035906020019064010000000081111561014c57600080fd5b82018360208201111561015e57600080fd5b8035906020019184600183028401116401000000008311171561018057600080fd5b91908080601f016020809104026020016040519081016040528093929190818152602001838380828437600081840152601f19601f82011690508083019250505050505050919291929080359060200190929190803590602001909291908035906020019092919050505061086e565b005b3480156101fe57600080fd5b5061022b6004803603602081101561021557600080fd5b810190808035906020019092919050505061093d565b604051808481526020018381526020018273ffffffffffffffffffffffffffffffffffffffff1673ffffffffffffffffffffffffffffffffffffffff168152602001935050505060405180910390f35b34801561028757600080fd5b506102ca6004803603602081101561029e57600080fd5b81019080803573ffffffffffffffffffffffffffffffffffffffff169060200190929190505050610996565b604051808215151515815260200191505060405180910390f35b3480156102f057600080fd5b506103276004803603604081101561030757600080fd5b8101908080359060200190929190803590602001909291905050506109ef565b6040518082815260200191505060405180910390f35b34801561034957600080fd5b50610352610a34565b005b34801561036057600080fd5b50610369610ae4565b604051808273ffffffffffffffffffffffffffffffffffffffff1673ffffffffffffffffffffffffffffffffffffffff16815260200191505060405180910390f35b6103d7600480360360208110156103c157600080fd5b8101908080359060200190929190505050610b0e565b005b3480156103e557600080fd5b50610428600480360360208110156103fc57600080fd5b81019080803573ffffffffffffffffffffffffffffffffffffffff169060200190929190505050610c65565b604051808215151515815260200191505060405180910390f35b34801561044e57600080fd5b50610457610cbb565b005b34801561046557600080fd5b5061049c6004803603604081101561047c57600080fd5b810190808035906020019092919080359060200190929190505050610ddb565b005b3480156104aa57600080fd5b506104b361135f565b604051808215151515815260200191505060405180910390f35b3480156104d957600080fd5b5061051c600480360360208110156104f057600080fd5b81019080803573ffffffffffffffffffffffffffffffffffffffff1690602001909291905050506113a3565b604051808215151515815260200191505060405180910390f35b34801561054257600080fd5b5061054b6113c3565b6040518082815260200191505060405180910390f35b34801561056d57600080fd5b506106456004803603608081101561058457600080fd5b81019080803590602001906401000000008111156105a157600080fd5b8201836020820111156105b357600080fd5b803590602001918460018302840111640100000000831117156105d557600080fd5b91908080601f016020809104026020016040519081016040528093929190818152602001838380828437600081840152601f19601f8201169050808301925050505050505091929192908035906020019092919080359060200190929190803590602001909291905050506113c9565b005b34801561065357600080fd5b5061065c611447565b604051808273ffffffffffffffffffffffffffffffffffffffff1673ffffffffffffffffffffffffffffffffffffffff16815260200191505060405180910390f35b3480156106aa57600080fd5b506106b361146d565b604051808215151515815260200191505060405180910390f35b3480156106d957600080fd5b506106e2611496565b6040518080602001828103825283818151815260200191508051906020019080838360005b83811015610722578082015181840152602081019050610707565b50505050905090810190601f16801561074f5780820380516001836020036101000a031916815260200191505b509250505060405180910390f35b34801561076957600080fd5b506107ac6004803603602081101561078057600080fd5b81019080803573ffffffffffffffffffffffffffffffffffffffff169060200190929190505050611562565b604051808381526020018281526020019250505060405180910390f35b3480156107d557600080fd5b506107de611586565b6040518080602001858152602001848152602001838152602001828103825286818151815260200191508051906020019080838360005b83811015610830578082015181840152602081019050610815565b50505050905090810190601f16801561085d5780820380516001836020036101000a031916815260200191505b509550505050505060405180910390f35b3373ffffffffffffffffffffffffffffffffffffffff166000809054906101000a900473ffffffffffffffffffffffffffffffffffffffff1673ffffffffffffffffffffffffffffffffffffffff161415156108c957600080fd5b600760019054906101000a900460ff1615156108e457600080fd5b83600190805190602001906108fa929190611642565b50603c83024201600381905550603c820260035401600481905550806002819055506000600760016101000a81548160ff02191690831515021790555050505050565b600a8181548110151561094c57fe5b90600052602060002090600302016000915090508060000154908060010154908060020160009054906101000a900473ffffffffffffffffffffffffffffffffffffffff16905083565b60008060009054906101000a900473ffffffffffffffffffffffffffffffffffffffff1673ffffffffffffffffffffffffffffffffffffffff168273ffffffffffffffffffffffffffffffffffffffff16149050919050565b60006060838360405160200180838152602001828152602001925050506040516020818303038152906040529050600081805190602001209050809250505092915050565b3373ffffffffffffffffffffffffffffffffffffffff166000809054906101000a900473ffffffffffffffffffffffffffffffffffffffff1673ffffffffffffffffffffffffffffffffffffffff16141515610a8f57600080fd5b600760019054906101000a900460ff161515610aaa57600080fd5b6000809054906101000a900473ffffffffffffffffffffffffffffffffffffffff1673ffffffffffffffffffffffffffffffffffffffff16ff5b6000600560009054906101000a900473ffffffffffffffffffffffffffffffffffffffff16905090565b6003548042101515610b1f57600080fd5b610b2833610c65565b15610b9d57604080519081016040528083815260200142815250600860003373ffffffffffffffffffffffffffffffffffffffff1673ffffffffffffffffffffffffffffffffffffffff1681526020019081526020016000206000820151816000015560208201518160010155905050610c61565b604080519081016040528083815260200142815250600860003373ffffffffffffffffffffffffffffffffffffffff1673ffffffffffffffffffffffffffffffffffffffff16815260200190815260200160002060008201518160000155602082015181600101559050506001600960003373ffffffffffffffffffffffffffffffffffffffff1673ffffffffffffffffffffffffffffffffffffffff16815260200190815260200160002060006101000a81548160ff0219169083151502179055505b5050565b6000600960008373ffffffffffffffffffffffffffffffffffffffff1673ffffffffffffffffffffffffffffffffffffffff16815260200190815260200160002060009054906101000a900460ff169050919050565b6000600a6000815481101515610ccd57fe5b9060005260206000209060030201600001549050600080905060008090505b600a80549050811015610d555782600a82815481101515610d0957fe5b9060005260206000209060030201600001541015610d4857600a81815481101515610d3057fe5b90600052602060002090600302016000015492508091505b8080600101915050610cec565b50600a81815481101515610d6557fe5b906000526020600020906003020160020160009054906101000a900473ffffffffffffffffffffffffffffffffffffffff16600560006101000a81548173ffffffffffffffffffffffffffffffffffffffff021916908373ffffffffffffffffffffffffffffffffffffffff1602179055505050565b610de433610c65565b1515610def57600080fd5b6060828260405160200180838152602001828152602001925050506040516020818303038152906040529050600081805190602001209050610e2f6116c2565b600860003373ffffffffffffffffffffffffffffffffffffffff1673ffffffffffffffffffffffffffffffffffffffff168152602001908152602001600020604080519081016040529081600082015481526020016001820154815250509050806000015182141515610f30576040517f08c379a00000000000000000000000000000000000000000000000000000000081526004018080602001828103825260228152602001807f496e636f7272656374206e6f6e636520616e642f6f722062696420616d6f756e81526020017f742100000000000000000000000000000000000000000000000000000000000081525060400191505060405180910390fd5b610f386116df565b606060405190810160405280868152602001836020015181526020013373ffffffffffffffffffffffffffffffffffffffff1681525090506000600a8054905090506000809050610f876116df565b610f8f6116df565b60008090505b8481101561118c57610fa56116df565b600a82815481101515610fb457fe5b90600052602060002090600302016060604051908101604052908160008201548152602001600182015481526020016002820160009054906101000a900473ffffffffffffffffffffffffffffffffffffffff1673ffffffffffffffffffffffffffffffffffffffff1673ffffffffffffffffffffffffffffffffffffffff1681525050905084156110c75783925080935082600a8381548110151561105657fe5b9060005260206000209060030201600082015181600001556020820151816001015560408201518160020160006101000a81548173ffffffffffffffffffffffffffffffffffffffff021916908373ffffffffffffffffffffffffffffffffffffffff16021790555090505061117e565b80600001518b11806110ef575080600001518b1480156110ee575080602001518860200151105b5b1561117c5780935086600a8381548110151561110757fe5b9060005260206000209060030201600082015181600001556020820151816001015560408201518160020160006101000a81548173ffffffffffffffffffffffffffffffffffffffff021916908373ffffffffffffffffffffffffffffffffffffffff1602179055509050506001945061117d565b5b5b508080600101915050610f95565b5082151561122557600a8590806001815401808255809150509060018203906000526020600020906003020160009091929091909150600082015181600001556020820151816001015560408201518160020160006101000a81548173ffffffffffffffffffffffffffffffffffffffff021916908373ffffffffffffffffffffffffffffffffffffffff1602179055505050506112b2565b600a8290806001815401808255809150509060018203906000526020600020906003020160009091929091909150600082015181600001556020820151816001015560408201518160020160006101000a81548173ffffffffffffffffffffffffffffffffffffffff021916908373ffffffffffffffffffffffffffffffffffffffff1602179055505050505b600860003373ffffffffffffffffffffffffffffffffffffffff1673ffffffffffffffffffffffffffffffffffffffff16815260200190815260200160002060008082016000905560018201600090555050600960003373ffffffffffffffffffffffffffffffffffffffff1673ffffffffffffffffffffffffffffffffffffffff16815260200190815260200160002060006101000a81549060ff021916905550505050505050505050565b6000600454804211151561137257600080fd5b600760019054906101000a900460ff16151561138d57600080fd5b600760009054906101000a900460ff1691505090565b60096020528060005260406000206000915054906101000a900460ff1681565b60025481565b336000806101000a81548173ffffffffffffffffffffffffffffffffffffffff021916908373ffffffffffffffffffffffffffffffffffffffff160217905550836001908051906020019061141f929190611642565b50603c83024201600381905550603c8202600354016004819055508060028190555050505050565b600560009054906101000a900473ffffffffffffffffffffffffffffffffffffffff1681565b6000600454804211151561148057600080fd5b600760019054906101000a900460ff1691505090565b60606003544210156114df576040805190810160405280600781526020017f42696464696e6700000000000000000000000000000000000000000000000000815250905061155f565b600454421015611526576040805190810160405280600a81526020017f526576656c6174696f6e00000000000000000000000000000000000000000000815250905061155f565b6040805190810160405280600381526020017f456e64000000000000000000000000000000000000000000000000000000000081525090505b90565b60086020528060005260406000206000915090508060000154908060010154905082565b606060008060006001600254600354600454838054600181600116156101000203166002900480601f01602080910402602001604051908101604052809291908181526020018280546001816001161561010002031660029004801561162d5780601f106116025761010080835404028352916020019161162d565b820191906000526020600020905b81548152906001019060200180831161161057829003601f168201915b50505050509350935093509350935090919293565b828054600181600116156101000203166002900490600052602060002090601f016020900481019282601f1061168357805160ff19168380011785556116b1565b828001600101855582156116b1579182015b828111156116b0578251825591602001919060010190611695565b5b5090506116be9190611717565b5090565b604080519081016040528060008019168152602001600081525090565b6060604051908101604052806000815260200160008152602001600073ffffffffffffffffffffffffffffffffffffffff1681525090565b61173991905b8082111561173557600081600090555060010161171d565b5090565b9056fea165627a7a7230582019d52949cb4ec42111fb9cd0f68ebd6b198f141de8f08ff901f98a273f504c150029",
  "source": "pragma solidity ^0.5.0;\n\ncontract Discount {\n\n    address payable private owner;\n    string private projectDescription;\n    uint public deposit;\n    uint private biddingEnd;\n    uint private revelationEnd;\n    address public winner;\n    uint private highestBid;\n    bool private winnerExists;\n    bool private checkedByOwner;\n    mapping(address => closedBid) public hashedBids;\n    mapping(address => bool) public bidExists;\n    openBid[] public bidQueue;\n\n    event tenderEndsWithWinner(address winner, uint bid);\n    event tenderEndsWithoutWinner();\n\n    struct closedBid {\n        bytes32 hash;\n        uint time;\n    }\n\n    struct openBid {\n        uint amount;\n        uint time;\n        address payable owner;\n    }\n\n    // Bidding duration in minutes\n    constructor() public {\n        \n         // Deposit in Ether\n    }\n\n\n    function generateHash(uint nonce, uint bidAmt) public pure returns (bytes32) {\n        bytes memory toHash = abi.encodePacked(nonce, bidAmt);\n        bytes32 hash = keccak256(toHash);\n        return hash;\n    }\n\n    \n    function makeTender(string memory desc, uint biddingDuration, uint revelationDuration, uint depositAmount) public{\n        owner = msg.sender;\n        projectDescription = desc;\n        biddingEnd = now + (biddingDuration * 1 minutes);\n        revelationEnd = biddingEnd + (revelationDuration * 1 minutes);\n        deposit = depositAmount;\n    }\n\n\n    modifier onlyBefore(uint time) {\n        require(now < time);\n        _;\n    }\n\n    modifier onlyAfter(uint time) {\n        require(now > time);\n        _;\n    }\n\n    modifier ownerOnly() {\n        require(owner == msg.sender);\n        _;\n    }\n\n    function hasBidBefore(address bidder) public view returns (bool) {\n        return bidExists[bidder];\n    }\n\n    function hasBeenChecked() public view onlyAfter(revelationEnd) returns (bool) {\n      return checkedByOwner;\n    }\n\n    function isOwner(address user) public view returns (bool) {\n      return (user == owner);\n    }\n\n    function hasWinner() public view onlyAfter(revelationEnd) returns (bool) {\n      require(checkedByOwner);\n      return winnerExists;\n    }\n\n    // Lets bidder submit hashed bids and ensures that bidders only make one bid each\n    function makeBid(bytes32 hashedBid) public payable onlyBefore(biddingEnd) {\n        if (hasBidBefore(msg.sender)) {\n            hashedBids[msg.sender] = closedBid(hashedBid, now);\n        } else {\n           // require(msg.value == (deposit * 1 ether), \"Deposit amount is incorrect!\");\n            hashedBids[msg.sender] = closedBid(hashedBid, now);\n            bidExists[msg.sender] = true;\n        }\n    }\n\n    // Checks revealed bid and adds to priority queue\n    function revealBid(uint nonce, uint bidAmt) public  {\n        require(hasBidBefore(msg.sender));\n\n        bytes memory toHash = abi.encodePacked(nonce, bidAmt);\n        bytes32 revealHash = keccak256(toHash);\n        closedBid memory closedBidOfSender = hashedBids[msg.sender];\n\n        require(revealHash == closedBidOfSender.hash, \"Incorrect nonce and/or bid amount!\");\n\n        openBid memory revealedBid = openBid(bidAmt, closedBidOfSender.time, msg.sender);\n        uint queueSize = bidQueue.length;\n        bool inserted = false;\n        openBid memory prevBid;\n        openBid memory temp;\n\n        for (uint i = 0; i < queueSize; i++) {\n            openBid memory currBid = bidQueue[i];\n            if (inserted) {\n                temp = prevBid;\n                prevBid = currBid;\n                bidQueue[i] = temp;\n            } else if ((bidAmt > currBid.amount) || ((bidAmt == currBid.amount) && (closedBidOfSender.time < currBid.time))) {\n                prevBid = currBid;\n                bidQueue[i] = revealedBid;\n                inserted = true;\n            } else {\n                // Does nothing\n            }\n        }\n\n        if (!inserted) { // Adds revealed bid to queue if not yet added\n            bidQueue.push(revealedBid);\n        } else { // Else adds the last bid back to queue\n            bidQueue.push(prevBid);\n        }\n\n        // Removes hashed bids from previous list to avoid sender revealing a valid bid more than once\n        delete hashedBids[msg.sender];\n        delete bidExists[msg.sender];\n\n    }\n\n    // Finds out which is the highest valid bid\n        function endRevelation() public{\n      //  require(!checkedByOwner);\n       uint smallest = bidQueue[0].amount;\n       uint index=0;\n   for (uint i = 0; i < bidQueue.length; i++) {\n      if (bidQueue[i].amount < smallest) {\n         smallest = bidQueue[i].amount;\n         index=i;\n      }\n   }\n\n   winner=bidQueue[index].owner;\n    }\n\n    // Closes the tender\n    function close() public ownerOnly {\n        require(checkedByOwner);\n        selfdestruct(owner);\n    }\n\n    // Changes the details of the Tender project\n    function reopenTender(string memory desc, uint biddingDuration, uint revelationDuration, uint depositAmount) public ownerOnly {\n        require(checkedByOwner);\n        projectDescription = desc;\n        biddingEnd = now + (biddingDuration * 1 minutes);\n        revelationEnd = biddingEnd + (revelationDuration * 1 minutes);\n        deposit = depositAmount;\n        checkedByOwner = false;\n    }\n\n    // Gets the phase of the Tender bidding event\n    function getPhase() public view returns (string memory) {\n        if (now < biddingEnd) {\n            return 'Bidding';\n        } else if (now < revelationEnd) {\n            return 'Revelation';\n        } else {\n            return 'End';\n        }\n    }\n\n    // Gets details about the Tender project\n    function getProjectDetails() public view returns (string memory, uint, uint, uint) {\n        return (projectDescription, deposit, biddingEnd, revelationEnd);\n    }\n\n    // Gets the result after revelation period\n    function getResults() public view returns (address) {\n        return (winner);\n    }\n\n}\n",
  "sourcePath": "D:/TEAM 11/project/contracts/Discount.sol",
  "compiler": {
    "name": "solc",
    "version": "0.5.0+commit.1d4f565a.Emscripten.clang"
  },
  "schemaVersion": "3.0.2",
  "updatedAt": "2019-11-25T08:21:28.266Z",
  "devdoc": {
    "methods": {}
  },
  "userdoc": {
    "methods": {}
  }
}