{
  "contractName": "Auction",
  "abi": [
    {
      "constant": true,
      "inputs": [],
      "name": "highestPrice",
      "outputs": [
        {
          "name": "",
          "type": "uint256"
        }
      ],
      "payable": false,
      "stateMutability": "view",
      "type": "function",
      "signature": "0x0e8670e0"
    },
    {
      "constant": true,
      "inputs": [
        {
          "name": "",
          "type": "address"
        }
      ],
      "name": "bids",
      "outputs": [
        {
          "name": "",
          "type": "uint256"
        }
      ],
      "payable": false,
      "stateMutability": "view",
      "type": "function",
      "signature": "0x62ea82db"
    },
    {
      "constant": true,
      "inputs": [],
      "name": "auctionState",
      "outputs": [
        {
          "name": "",
          "type": "uint8"
        }
      ],
      "payable": false,
      "stateMutability": "view",
      "type": "function",
      "signature": "0x7fb45099"
    },
    {
      "constant": true,
      "inputs": [],
      "name": "owner",
      "outputs": [
        {
          "name": "",
          "type": "address"
        }
      ],
      "payable": false,
      "stateMutability": "view",
      "type": "function",
      "signature": "0x8da5cb5b"
    },
    {
      "constant": true,
      "inputs": [],
      "name": "highestBidder",
      "outputs": [
        {
          "name": "",
          "type": "address"
        }
      ],
      "payable": false,
      "stateMutability": "view",
      "type": "function",
      "signature": "0x91f90157"
    },
    {
      "inputs": [],
      "payable": false,
      "stateMutability": "nonpayable",
      "type": "constructor",
      "signature": "constructor"
    },
    {
      "constant": false,
      "inputs": [
        {
          "name": "_title",
          "type": "string"
        },
        {
          "name": "_startPrice",
          "type": "uint256"
        },
        {
          "name": "_description",
          "type": "string"
        }
      ],
      "name": "x",
      "outputs": [],
      "payable": false,
      "stateMutability": "nonpayable",
      "type": "function",
      "signature": "0x1bd5b469"
    },
    {
      "constant": false,
      "inputs": [
        {
          "name": "x",
          "type": "uint256"
        }
      ],
      "name": "placeBid",
      "outputs": [
        {
          "name": "",
          "type": "bool"
        }
      ],
      "payable": true,
      "stateMutability": "payable",
      "type": "function",
      "signature": "0x9979ef45"
    },
    {
      "constant": false,
      "inputs": [],
      "name": "finalizeAuction",
      "outputs": [],
      "payable": false,
      "stateMutability": "nonpayable",
      "type": "function",
      "signature": "0xf77282ab"
    },
    {
      "constant": true,
      "inputs": [],
      "name": "returnContents",
      "outputs": [
        {
          "name": "",
          "type": "string"
        },
        {
          "name": "",
          "type": "uint256"
        },
        {
          "name": "",
          "type": "string"
        },
        {
          "name": "",
          "type": "uint8"
        }
      ],
      "payable": false,
      "stateMutability": "view",
      "type": "function",
      "signature": "0xc8287b58"
    }
  ],
  "bytecode": "0x608060405234801561001057600080fd5b50336000806101000a81548173ffffffffffffffffffffffffffffffffffffffff021916908373ffffffffffffffffffffffffffffffffffffffff160217905550610baf806100606000396000f300608060405260043610610099576000357c0100000000000000000000000000000000000000000000000000000000900463ffffffff1680630e8670e01461009e5780631bd5b469146100c957806362ea82db146101825780637fb45099146101d95780638da5cb5b1461021257806391f90157146102695780639979ef45146102c0578063c8287b58146102f8578063f77282ab14610410575b600080fd5b3480156100aa57600080fd5b506100b3610427565b6040518082815260200191505060405180910390f35b3480156100d557600080fd5b50610180600480360381019080803590602001908201803590602001908080601f016020809104026020016040519081016040528093929190818152602001838380828437820191505050505050919291929080359060200190929190803590602001908201803590602001908080601f016020809104026020016040519081016040528093929190818152602001838380828437820191505050505050919291929050505061042d565b005b34801561018e57600080fd5b506101c3600480360381019080803573ffffffffffffffffffffffffffffffffffffffff16906020019092919050505061048b565b6040518082815260200191505060405180910390f35b3480156101e557600080fd5b506101ee6104a3565b604051808260028111156101fe57fe5b60ff16815260200191505060405180910390f35b34801561021e57600080fd5b506102276104b6565b604051808273ffffffffffffffffffffffffffffffffffffffff1673ffffffffffffffffffffffffffffffffffffffff16815260200191505060405180910390f35b34801561027557600080fd5b5061027e6104db565b604051808273ffffffffffffffffffffffffffffffffffffffff1673ffffffffffffffffffffffffffffffffffffffff16815260200191505060405180910390f35b6102de60048036038101908080359060200190929190505050610501565b604051808215151515815260200191505060405180910390f35b34801561030457600080fd5b5061030d6106cf565b60405180806020018581526020018060200184600281111561032b57fe5b60ff168152602001838103835287818151815260200191508051906020019080838360005b8381101561036b578082015181840152602081019050610350565b50505050905090810190601f1680156103985780820380516001836020036101000a031916815260200191505b50838103825285818151815260200191508051906020019080838360005b838110156103d15780820151818401526020810190506103b6565b50505050905090810190601f1680156103fe5780820380516001836020036101000a031916815260200191505b50965050505050505060405180910390f35b34801561041c57600080fd5b50610425610834565b005b60055481565b8260019080519060200190610443929190610ade565b50816002819055508060039080519060200190610461929190610ade565b506001600460006101000a81548160ff0219169083600281111561048157fe5b0217905550505050565b60076020528060005260406000206000915090505481565b600460009054906101000a900460ff1681565b6000809054906101000a900473ffffffffffffffffffffffffffffffffffffffff1681565b600660009054906101000a900473ffffffffffffffffffffffffffffffffffffffff1681565b6000806000809054906101000a900473ffffffffffffffffffffffffffffffffffffffff1673ffffffffffffffffffffffffffffffffffffffff163373ffffffffffffffffffffffffffffffffffffffff161415151561056057600080fd5b6001600281111561056d57fe5b600460009054906101000a900460ff16600281111561058857fe5b14151561059457600080fd5b6000831115156105a357600080fd5b82600760003373ffffffffffffffffffffffffffffffffffffffff1673ffffffffffffffffffffffffffffffffffffffff16815260200190815260200160002081905550600760003373ffffffffffffffffffffffffffffffffffffffff1673ffffffffffffffffffffffffffffffffffffffff1681526020019081526020016000205490506005548111151561063957600080fd5b80600760003373ffffffffffffffffffffffffffffffffffffffff1673ffffffffffffffffffffffffffffffffffffffff168152602001908152602001600020819055508060058190555033600660006101000a81548173ffffffffffffffffffffffffffffffffffffffff021916908373ffffffffffffffffffffffffffffffffffffffff1602179055506001915050919050565b606060006060600060016002546003600460009054906101000a900460ff16838054600181600116156101000203166002900480601f0160208091040260200160405190810160405280929190818152602001828054600181600116156101000203166002900480156107835780601f1061075857610100808354040283529160200191610783565b820191906000526020600020905b81548152906001019060200180831161076657829003601f168201915b50505050509350818054600181600116156101000203166002900480601f01602080910402602001604051908101604052809291908181526020018280546001816001161561010002031660029004801561081f5780601f106107f45761010080835404028352916020019161081f565b820191906000526020600020905b81548152906001019060200180831161080257829003601f168201915b50505050509150935093509350935090919293565b6000806000809054906101000a900473ffffffffffffffffffffffffffffffffffffffff1673ffffffffffffffffffffffffffffffffffffffff163373ffffffffffffffffffffffffffffffffffffffff1614806108d157506000600760003373ffffffffffffffffffffffffffffffffffffffff1673ffffffffffffffffffffffffffffffffffffffff16815260200190815260200160002054115b15156108dc57600080fd5b6000809054906101000a900473ffffffffffffffffffffffffffffffffffffffff1673ffffffffffffffffffffffffffffffffffffffff163373ffffffffffffffffffffffffffffffffffffffff16141561095f576000809054906101000a900473ffffffffffffffffffffffffffffffffffffffff1691506005549050610a2a565b600660009054906101000a900473ffffffffffffffffffffffffffffffffffffffff1673ffffffffffffffffffffffffffffffffffffffff163373ffffffffffffffffffffffffffffffffffffffff1614156109e357600660009054906101000a900473ffffffffffffffffffffffffffffffffffffffff16915060009050610a29565b339150600760003373ffffffffffffffffffffffffffffffffffffffff1673ffffffffffffffffffffffffffffffffffffffff1681526020019081526020016000205490505b5b6000600760003373ffffffffffffffffffffffffffffffffffffffff1673ffffffffffffffffffffffffffffffffffffffff168152602001908152602001600020819055508173ffffffffffffffffffffffffffffffffffffffff166108fc829081150290604051600060405180830381858888f19350505050158015610ab5573d6000803e3d6000fd5b506002600460006101000a81548160ff02191690836002811115610ad557fe5b02179055505050565b828054600181600116156101000203166002900490600052602060002090601f016020900481019282601f10610b1f57805160ff1916838001178555610b4d565b82800160010185558215610b4d579182015b82811115610b4c578251825591602001919060010190610b31565b5b509050610b5a9190610b5e565b5090565b610b8091905b80821115610b7c576000816000905550600101610b64565b5090565b905600a165627a7a72305820938f0bf386fd96c9e2988fba8260093121d38036627e661aed3f06b746be8c8d0029",
  "source": "// We will be using Solidity version 0.5.3\r\npragma solidity ^0.4.8;\r\n// Importing OpenZeppelin's SafeMath Implementation\r\n\r\n\r\ncontract Auction {\r\n    \r\n    \r\n    address public owner; \r\n    string title;\r\n    uint startPrice;\r\n    string description;\r\n\r\n    enum State{Default, Running, Finalized}\r\n    State public auctionState;\r\n\r\n    uint public highestPrice;\r\n    address public highestBidder;\r\n    mapping(address => uint) public bids;\r\n    \r\n    \r\n    constructor() public{\r\n        owner=msg.sender;\r\n    }\r\n     function x(string memory _title,\r\n        uint _startPrice,\r\n        string memory _description) public{\r\n        title = _title;\r\n        startPrice = _startPrice;\r\n        description = _description;\r\n        auctionState = State.Running;\r\n     }\r\n    \r\n    modifier notOwner(){\r\n        require(msg.sender != owner);\r\n        _;\r\n    }\r\n    modifier isOwner(){\r\n        require(msg.sender == owner);\r\n        _;\r\n    }\r\n    \r\n   \r\n    \r\n    function placeBid(uint x) public payable notOwner returns(bool) {\r\n        require(auctionState == State.Running);\r\n        require(x > 0);\r\n        // update the current bid\r\n        // uint currentBid = bids[msg.sender] + msg.value;\r\n        bids[msg.sender]=x;\r\n        uint currentBid =bids[msg.sender]; \r\n        require(currentBid > highestPrice);\r\n        // set the currentBid links with msg.sender\r\n        bids[msg.sender] = currentBid;\r\n        // update the highest price\r\n        highestPrice = currentBid;\r\n        highestBidder = msg.sender;\r\n        \r\n        return true;\r\n    }\r\n    \r\n    function finalizeAuction() public{\r\n        //the owner and bidders can finalize the auction.\r\n        require(msg.sender == owner || bids[msg.sender] > 0);\r\n        \r\n        address recipiant;\r\n        uint value;\r\n        \r\n        // owner can get highestPrice\r\n        if(msg.sender == owner){\r\n            recipiant = owner;\r\n            value = highestPrice;\r\n        }\r\n        // highestBidder can get no money\r\n        else if (msg.sender == highestBidder){\r\n            recipiant = highestBidder;\r\n            value = 0;\r\n        }\r\n        // Other bidders can get back the money \r\n        else {\r\n            recipiant = msg.sender;\r\n            value = bids[msg.sender];\r\n        }\r\n        // initialize the value\r\n        bids[msg.sender] = 0;\r\n        recipiant.transfer(value);\r\n        auctionState = State.Finalized;\r\n    }\r\n   \r\n    \r\n    function returnContents() public view returns(        \r\n        string memory,\r\n        uint,\r\n        string memory,\r\n        State\r\n        ) {\r\n        return (\r\n            title,\r\n            startPrice,\r\n            description,\r\n            auctionState\r\n        );\r\n    }\r\n    \r\n}",
  "sourcePath": "D:/TEAM 11/Auction/contracts/Auction.sol",
  "compiler": {
    "name": "solc",
    "version": "0.4.25+commit.59dbf8f1.Emscripten.clang"
  },
  "schemaVersion": "3.0.2",
  "updatedAt": "2019-11-25T08:45:12.314Z",
  "devdoc": {
    "methods": {}
  },
  "userdoc": {
    "methods": {}
  }
}